:020000040000FA
:060000000216880209DC73
:030013000209FEE1
:03002B00021419A3
:03003300020C2696
:03003B00020A5363
:030053000209118E
:03005B0002118B04
:030063000211ACDB
:03006B00020BCCB9
:03007B00020BFD78
:10008300020970010020FD0002012C05000000019F
:10009300661C721C0000781C841C000000008A1C73
:1000A300AE1CB41CBA1C00000000000000000101DB
:1000B3000204081020408001FFFF090D0101040123
:1000C300FEFF0000000000000006FFFFFFFFFFFF30
:1000D3000101010400C419000000E8030000FFFF50
:1000E300901AE803000064006400B801A0BB0D008F
:1000F300A0BB0D00020200F8FF0705021E04010564
:100103001E02051E020A0A01010808010310270244
:10011300803E0102FEFFE8030A050001FFFF010A1A
:100123001401E0C503423F1A51123FF304B53F00E7
:1001330000803E010105030101FF0F10FEFF153B87
:1001430000000000873900000000FF000000FF00EE
:10015300C082C0831202B0600814601214601C8055
:100163002BEA6005EB42808023E85280801EEA6020
:1001730005EB42908016E852908011EBC394205017
:100183000BEA6005EB42A08003E852A002021EC006
:1001930082C0831202B0600814602C146050807B0C
:1001A300E852F374016A601274026A601574046A97
:1001B3007003EB428FEB42FD806153F7DFE8528F10
:1001C30080F343F72080F6E852F474016A601274F6
:1001D300026A601574046A7003EB42F6EB42FE8018
:1001E3003A53F7BFE852F680F343F74080F6EBC388
:1001F30094205027E852F574016A601274026A6011
:100203001574046A7003EB42F7EB42FF800D53F75A
:100213007FE852F780F343F78080F6D083D08222C1
:10022300C082C0831202B0600814602B14604E8039
:100233006CE852F352FD74016A600F74026A600F36
:1002430074046A7058EB428F805353F7DF80034383
:10025300F720E8528F8046E852F452FE74016A6038
:100263000F74026A600F74046A7032EB42F6802DD9
:1002730053F7BF800343F740E852F68020EBC39463
:1002830020501AE844E0F852F552FF74016A6010F6
:1002930074026A601374046A7003EB42F702021E6D
:1002A30053F77FE852F780F543F78080F6E9540768
:1002B300FC748A2CF582E4341DF583E0FBF4F8E941
:1002C300C4540F540322C082C0831202B0600814C6
:1002D300601214601C802DEA6005EB42FD8025E866
:1002E30052FD8020EA6005EB42FE8018E852FE8052
:1002F30013EBC39420500DEA6005EB42FF800574B5
:10030300E04852FF02021EC082C0831202B060089E
:100313001460151460228034EA6005EB4280800388
:10032300E85280EB42FD8024EA6005EB42908003B3
:10033300E85290EB42FE8014EBC39420500EEA6027
:1003430005EB42A08003E852A0EB42FF02021EE944
:10035300C4540F54036007146013146020227801FF
:10036300E8F4FBEA602014602114601522740F592D
:10037300C394045004780280E7780480E37808800B
:10038300DFE58C586004EB528C22E8428C22121673
:1003930098601D1216A77005191919801A121529CC
:1003A300701F121501C37003E6673319191940074B
:1003B3001818182208080874FFF618F618F618F625
:1003C30022121501601712174D702192F012175661
:1003D3007019501720F014080808090909E7F618DE
:1003E30019E7F61819E7F61819E7F62212175660F7
:1003F300E6E869701F0808E62480F608E436F61874
:10040300547FB47F0CE654806007F6E418F618F6C0
:1004130022181822E9C6CC08C6CD08C6CE08C6CF16
:10042300C0E0E8C0E0EAC0E0EBC0E009E9F809E7B2
:10043300FA09E7FBE6F918E6F8C3EC98ED99EE9AAA
:10044300EBC2E7F5F0EFC2E795F0500E600CEBCF8F
:10045300FBEACEFAE9CDF9E8CCF8EAA2E7D2E7FA6B
:10046300EB33FB13F5F0EEA2E7D2E7FEEF33FFC564
:10047300F013A2E730E601B313C5F0C3C0E0C0F048
:100483007F00C39BFB605E9418600F401D14601ACD
:10049300D0E023F9D0E0F80205728AF0E94860035E
:1004A300D2F0E4AFF0FAF9F8803BEB30E40D89F0D9
:1004B300EA6003D2F0E4AFF0F9CAF8EB30E30D8859
:1004C300F0EF6002D2F0AFF0E4CAC9F8EB54076072
:1004D30014FBC3EA13FAE913F9E813F8EF13500214
:1004E300D2E0FFDBEDD0E0C0E030E739C3E49FFFAB
:1004F300F5F0EC98FC42F0ED99FD42F0EE9AFE42E5
:10050300F0D0E0F9D0E0F8E5F0607AE923F9EE20E5
:10051300E742D8028067C3EF33FFEC33FCED33FDD2
:10052300EE33FE80EAEC28FCED39FDEE3AFED0E036
:1005330023F9D0E0F84002801BC3EE13FEED13FD58
:10054300EC13FCEF135002D2E0FF08B800067F7FE4
:1005530074FF802EEF3350178CF020F00260100CE4
:10056300BC000C0DBD00080EBE000408E860DFE906
:1005730033E813FFEE2313FE4F4D4C8008E95480FC
:10058300FFE4FEFDFCEE33EF33F47004FCFD7E80EC
:10059300D0E0FBD0E0FAD0E0F8D0E0CFC618CEC66A
:1005A30018CDC618CCC6F92212169870041818185C
:1005B300221216A7700D74FFF61819F61819F618FB
:1005C30019F622E7548066F6121756700F12174D6C
:1005D30070F014F608F608F608F680D112174D707D
:1005E3000CF608F608768008E6447F80EC121504C2
:1005F300700C12152C60BFE65480F6E480BB121514
:100603002C700519191980A5E869700C763F1876C6
:100613008018F618F6E8F922E6CDC0E018ECC0E041
:10062300E633CD33CDD313F6E719FCE7191933CCF1
:1006330033C3947F400ECD9D502408E65480F6E4E6
:1006430018F6800FF4043D14501408E6447FF6189E
:100653007680E418F618F6D0E0FCD0E0FD22CCD387
:1006630013CCFD18E4C6CBC0E018E4C6CAC0E0084A
:1006730008ED08C633E613F618E433C675F003C372
:10068300CA97CA09CB97CB199C40047D08802EBD1D
:10069300000302075416B6FF050606081618C3CA58
:1006A30033CACB33CB33CA27CA09CB37CB193CC3A5
:1006B3007D08803E187D0820E75CC633C6CA33CA6E
:1006C300CB33CB33DDF1D5F0EB30E77BCA97CA09E7
:1006D300CB974ACB199C406F4B7025E620E02180D5
:1006E30066187D08C3CA97CA09CB97CB199CD3C692
:1006F30033C6CA33CACB33CB3350C9DDE7D5F0E1B8
:10070300D3E4C636C608C636C608C636C608C636D5
:10071300C61818188031C3CA97CA09CB97CB199C3E
:10072300B34097C633C6CA33CACB33CB33DD34D5D4
:10073300F02EC6A2E0C640C8CA27CA09CB37194A59
:1007430070BECB3CB480B90808E63308E633601FBB
:10075300181818D0E0FAD0E0FBD0E0FCD0E0FD227E
:10076300187D08CA27CA09CB37CB193CD38080131D
:10077300F618E4B67F11F618B6FF0EF618C6047025
:10078300D20808768080CAF618F618F680C50012DB
:100793001698604F1216A76012E7548066F612157A
:1007A30029701112174D703B090909F4F618F61850
:1007B300F618F6221215017015121756080808606C
:1007C300EAE6447FF618768018E4F618F622121744
:1007D30056601612174D7012E4F608F608F608E68E
:1007E3005480F609090918181822EAC0E0EBC0E0A2
:1007F300ECC0E0EDC0E0E687F0A4FBACF008E687D0
:10080300F0A42CFCE435F0FA1809E687F0A42C4B8D
:1008130060027401CA35F0FCE433FB09E687F0D2C9
:10082300F7A42CCB35F0FC1908E687F0A42BCC35C4
:10083300F0FBE433FD0819E687F0D2E7A42C4ACB9A
:1008430035F0CD3400FC09E687F0D2E7A42DCC3592
:10085300F0FDE433FA0918E687F0D2F7A42CCD357E
:10086300F0CA3400FC08E687F0D2E7D2F7A42ACC1A
:1008730035F07A7E20E70B0ACB33CBCD33CDCC33A7
:10088300CC33CB3350147004ED30E00ED2F1E4CD11
:100893003DCDCC3CCC3B5005DA05C2F1EB547FC6D1
:1008A3003308E63392F0FBE73309E733C39A502D5D
:1008B3002B70190C0D4C4D70151806E608C33370D8
:1008C3000D20F10AA2F013F6E418800B4024E4F69D
:1008D30030F002768018F618F618F68024D33B140D
:1008E300501074FFA2F013F6187680E418F618F689
:1008F300800FA2F013F618E63303F618ECF618EDA2
:10090300F6D0E0FDD0E0FCD0E0FBD0E0FA22C0E07E
:1009130074F1120E22A2AFE433F509D2AF85A70812
:10092300AFA1EF5508FE74105E600612195A75A147
:10093300EF74085E600812196075A1F78024EFA2B6
:10094300E092F0E508A2E082F05017906198E0F899
:1009530090049CE0C398A2D265D0335002E8F075AE
:10096300A1FEE509A2E092AF7F02020E81C0E0740E
:10097300F2120E22A2AFE433FED2AF9061A4E0F8EC
:10098300759B00E59158540860087591F71219A8F2
:100993008023E59158541060087591EF1219AE80C9
:1009A30014E591A2E092F0E8A2E082F05007E0C2E1
:1009B300E0F0121AF89061A3E0F8E5E958540460F6
:1009C3000E121ACE75E9FB906193E0A2E640F2EEB7
:1009D300A2E092AF7F01020E81C0E074F2120E22F8
:1009E300A2AFE433FED2AF9061A5E0F8E5BF58545F
:1009F30004600675BFFB121B1080D4C0E0C0D0E8B2
:100A0300C0E0E9C0E0C082C083A8C1E8C0E09004B0
:100A130009E0F8748828F582E43403F583D0E0F024
:100A2300900408E0F8A3E0687006E59590040BF0E5
:100A3300900409E004F0C394804002E4F0A374C678
:100A4300F0D083D082D0E0F9D0E0F8D0D0D0E0323B
:100A5300C0E0C0D0E8C0E0E9C0E0C082C083900439
:100A63008CE0F8A3E0687008539AFBA3740180221A
:100A7300C2E990048CE0F8740128F0740C28F58224
:100A8300E43404F583E0F5C190048CE0C394804022
:100A930002E4F080AC120AE330F039120B28803400
:100AA300120AE320F01430E72B74FFFCFBFA747F87
:100AB3008022E4FCFBFA7480801AB48008BC00F244
:100AC300BB00EF800F50EBF9E4C39AFAE49BFBE41D
:100AD3009CFCE499C6CC18C6CB18C6CA18C6F92222
:100AE300E4C9C608CAC608CBC6D3330308CCC63389
:100AF30092F0C3947F402E94184019C9B90704CAD1
:100B0300CBCC225025C309CA33CACB33CBCC33CC8D
:100B130033D9F422F4600DC9CCC313CB13CBCA135E
:100B2300CAD9F6CC22E4FCFBFA2214FCFBFA22C35A
:100B3300E498F8E499F9120B738026C3E49AFAE473
:100B43009BFBE920E7E9120B73E498F8E499F92297
:100B5300C3E498F8E499F9120B73E498F8E499F96B
:100B6300C3E49AFAE49BFB22EB20E7CFE920E7E01A
:100B7300B90010BB0008E88AF084F8AAF022E4FB6D
:100B8300C8FA22EB70227B10C833C8C933C933506B
:100B930007C39AC3DBF280069A50012ADBEAC83303
:100BA300F4C8C933F4C9FA2275F008E4C833C8C9D4
:100BB30033C933C99AC99B5004C92AC93BD5F0EC40
:100BC300FBC833F4C8E4C9FA22C0E074F2120E225F
:100BD300A2AFE433FED2AF90062DE05589600FE556
:100BE30089FA7900121DAA90062DE0F45289C2C534
:100BF300EEA2E092AF7F01020E81C0E074F2120E0A
:100C030022A2AFE433FED2AF90062EE0558A600FE6
:100C1300E58AFA7901121DAA90062EE0F4528AC2DF
:100C2300EB80CDC0E074F2120E22A2AFE433FED209
:100C3300AF90062FE0558B600FE58BFA7902121DFA
:100C4300AA90062FE0F4528BC2E880A4080808EAB1
:100C5300C0E0EBC0E086F0E7A4FA180986F0E7A449
:100C63002AFA180986F0E7A42AFA180986F0E7A4F5
:100C73002AFA1986F0E7A4FBE5F02AFA190886F0A8
:100C8300E7A42BFBE5F03AFA190886F0E7A42BFB5F
:100C9300E5F03AFA18180986F0E7A4C5F02BFBE44F
:100CA3003AFA1908E7C5F0C6A426F6E5F03BFBE4DB
:100CB3003AFA1886F0E7A4F6E5F00826F6E43B08CE
:100CC300F6E43A08F6D0E0FBD0E0FA22080808E69A
:100CD30030E711121565120CE7080808C64480C6F0
:100CE30018181822181818E9799EC608CAC608CB1E
:100CF300C608CCC6C370207996CACBCC7019798E3E
:100D0300CBCC70137986CC700EF9802ACA33CACB48
:100D130033CBCC33CC331930E7F2CCCBCA335014BA
:100D23007004EA30E00DE4CA3ACACB3BCBCC3CCCEE
:100D3300500209C3E913C6CC182313C6CB18C6CA7D
:100D430018C6F922E4CFC0E0E4CEC0E0E4CDC0E0B1
:100D5300E4CCC0E075F020E626F608E633F608E6B4
:100D630033F608E633F6181818EC33FCED33FDEED2
:100D730033FEEF33FFC3EC9709ED9709EE9709EFC5
:100D830097191919400FFFEC97FC09ED97FD09EE30
:100D930097FE191906D5F0BFECF709EDF709EEF741
:100DA30009EFF7191919D0E0FCD0E0FDD0E0FED02F
:100DB300E0FF222518C582C0E0E51934FFC583C0D2
:100DC300E0E518C3958224F810AF0885831985825E
:100DD300188008858319858218D2AFCEF0A3E52049
:100DE300F0A37808E608F0A3DEFAEFF0A3E5812488
:100DF300FAF8E608F0A3E608F0A3E608F0A308086B
:100E0300E608F0A3E608F0A315811581D0E0FED033
:100E1300E0F8158115811581E8C0E0EEC0E022C03D
:100E2300D02518C582C0E0E51934FFC583C0E0E5CD
:100E330018C3958224F310AF08858319858218801F
:100E430008858319858218D2AFC8F0A3E9F0A3EA15
:100E5300F0A3EBF0A37908E709F0A3D8FAECF0A329
:100E6300EDF0A3EEF0A3EFF0A3D0E0F0A3D0E0F019
:100E7300A3D0E0F0A3E520F0A3E5F0F0A3228519C9
:100E830083851882E0C0E0A3E0F9A3E0FAA3E0FBC6
:100E9300A37808E0F608A3DFFAE0FCA3E0FDA3E0F3
:100EA300FEA3E0FFA3E0C0E0A3E0C0E0A3E0F5D031
:100EB300A3E0F520A3E0A3F5F010AF08858319851F
:100EC30082188008858319858218D2AFD082D08397
:100ED300D0E0F8D0E032121568181818120D471236
:100EE300163719191922121637191919080808E69D
:100EF30018181820E7E0120D471215681818182261
:100F0300090909E719191920E7DC080808E6181880
:100F13001820E703020D47121568181818120D4719
:100F230012156818181812163719191922121738BA
:100F3300B90003020F6FE4900331782E791B80020E
:100F4300F0A3D8FCD9FA7A5E7B1D90008678CE791F
:100F5300018015E493A3AD82AE838A828B83F0A3D1
:100F6300AA82AB838D828E83D8E9D9E775828D758A
:100F730083BC74071213907582F475833674001260
:100F83001390E4731E75F0108E1A8F1B85821F85D4
:100F9300831E851882851983E0CEA3E0CF851F8247
:100FA300851E83EBC9EAC8EDCBECCAC3E833C8E9B5
:100FB30033C9EA33CAEB33CBC3EA9EF51DEB9FF586
:100FC3001CB35004AB1CAA1DEC33CCED33CDD5F0D0
:100FD300DAAE1AAF1B22121698601C1216A76017FE
:100FE300121756700712174D7001D322C0D0121773
:100FF3004D7006D0D0B322C32233D0D0501430E08A
:10100300F6C3E7960809E7960809E7960809E796FD
:10101300B32220E0D5E6970809E6970809E6970882
:1010230009E697B322D083D082ECC0E0EDC0E0E4C0
:1010330093A3FCE493A3FDED4C600D12114CEC243F
:10104300FFFCED34FFFD80EFE493A3FCE493A3FDE9
:10105300ED4C600D121253EC24FFFCED34FFFD80C8
:10106300EFD0E0FDD0E0FCE493A3C0E0E493C0E064
:1010730022121698601B1216A760161217567007D5
:1010830012174D600CB322C0D012174D7005D0D08B
:1010930022C32233D0D0501330E0EBC3E7960809C4
:1010A300E7960809E7960809E7962220E0E4E69721
:1010B3000809E6970809E6970809E69722D083D03E
:1010C30082E9C0E0E493A3C386F0C5F095F0F90884
:1010D300E493A386F0C5F095F0700BE493A3C39952
:1010E3004005E9048002A3E475F002A42582F58299
:1010F300E5F03583F583D0E0F9E493A3C0E0E4930E
:10110300C0E022851983851882E0A3FEE0A3F520C1
:101113007808E0A3F608DFFAE0A3FFE0A3C0E0E06D
:10112300A3C0E0E0A3C0E0E0A3C0E0E0A3C0E01000
:10113300AF088582188583198008858218858319ED
:10114300D2AFD083D082021396C0E0C3E493960853
:101153007401939618400FE4936670080874019322
:10116300661870007019A3A3C3E4939608740193DF
:101173009618A3A3400DD0E0D0E0D0E0021064A302
:10118300A3A3A3A3A3D0E022C0E074F2120E22C251
:10119300D9901DA7E0C39400A2D265D0334005E0E7
:1011A300F912209E7F01020E81C0E074F2120E221A
:1011B300C2DC901DA9E0F9C39400A2D265D03340EC
:1011C3000312209E80DE7404800474028000CCC06D
:1011D300E0EDC0E0E518C39CCCAD1950011D10AF84
:1011E300068C188D1980068C188D19D2AF12131224
:1011F300D0E0FDD0E0FC2274028000CCC0E0EDC062
:10120300E0E518C39CCCAD1950011D10AF068C1836
:101213008D1980068C188D19D2AF1212CED0E0FD35
:10122300D0E0FC2212169860251216A76020121730
:1012330056700302174D080808E76670101819E77F
:1012430066700A1819E76670041819E76622F42213
:10125300C0E0C0F088F0E4936670080874019366F8
:10126300187000A8F0A3A3700BD0F0D0E0D0E0D0AA
:10127300E0021064A3A3D0F0D0E022D083D082CCCC
:10128300C0E0E493A360061213331470FAE493A34B
:1012930060061214961470FAD0E0FCE493A3C0E045
:1012A300E493C0E022C008C3E096F50808A3E096E3
:1012B300420808A3E096420808A3E0964208A2D297
:1012C30065D033E5087001D3D00822CAC0E0E493A7
:1012D300A3C582CCC582C583CDC583F0A3C582CC0B
:1012E300C582C583CDC583DAE5D0E0CA22A2E792E1
:1012F300D65002F40430F70663F0FF05F0B3400361
:1013030084800384F40430D60563F0FF05F022CA19
:10131300C0E0E0A3C582CCC582C583CDC583F0A35D
:10132300C582CCC582C583CDC583DAE6D0E0CA22A7
:10133300C0E0E493A3D39C5010E493A3C39C400A5E
:10134300D0E0D0E0D0E002129BA3A3A3D0E02270B0
:1013530009080808226016181818C6C333C608C639
:1013630033C608C633C608C633C6D5E0EA22C0086A
:10137300C3E096F50808A3E096420808A3E0964266
:101383000808A3E09645087001D3D00822C09FF552
:101393009FE473D09F22D083D082C09FE493C0E0A8
:1013A300740193C0E0740293F59F227404800A745D
:1013B300038006740280027401C0E0F4041213E493
:1013C300D0E01216E32200C0D0251810AF08F5189C
:1013D300500C05198008F51850020519D2AFD0D06A
:1013E300222518F58210AF08F518400C151980084E
:1013F300F51840021519D2AF85198322BB0102E704
:1014030022C082C08389828A83BB0003E08002E416
:1014130093D083D08222C0E0C0D0E8C0E0A8A8D295
:10142300AFC2C7E8A2E792AFD0E0F8D0D0D0E032A5
:101433006017080808C6A2E713C618C613C618C65D
:1014430013C618C613C6D5E0E9226016080808C6F5
:10145300C313C618C613C618C613C618C613C6D5F3
:10146300E0EA22C3E0C696F608A3E0C696F608A310
:10147300E0C696F608A3E0C696F6222518F8E435EA
:1014830019F9222518FAE43519FB222518FCE4354D
:1014930019FD22C0E0E493A36C7009D0E0D0E0D042
:1014A300E002129BA3A3D0E022251810AF08F51881
:1014B300400C15198008F51840021519D2AF22E720
:1014C3006670100809E766700A0809E76670040881
:1014D30009E76622C3E09608A3E09608A3E096080E
:1014E300A3E096A2D265D03322E066701008A3E091
:1014F30066700A08A3E066700408A3E0662219195F
:1015030019E70947097009E727097005E733F4224A
:101513000922C3E096F008A3E096F008A3E096F052
:1015230008A3E096F022181818E60846087009E6A2
:1015330026087005E633F4220822C3E49396087460
:101543000193960874029396087403939622C3E654
:1015530097F60809E697F60809E697F60809E69765
:10156300F622181818E4C396F608E496F608E496EB
:10157300F608E496F622E056F008A3E056F008A336
:10158300E056F008A3E056F022E667F60809E6679E
:10159300F60809E667F60809E667F622E493F60813
:1015A300740193F608740293F608740393F622E623
:1015B30057F60809E657F60809E657F60809E65705
:1015C300F622E627F60809E637F60809E637F608AD
:1015D30009E637F622E026F608A3E036F608A3E08C
:1015E30036F608A3E036F622E026F008A3E036F04C
:1015F30008A3E036F008A3E036F022E647F6080930
:10160300E647F60809E647F60809E647F6227004B6
:1016130022600D18C6C333C608C633C6D5E0F41816
:1016230022E056F608A3E056F608A3E056F608A310
:10163300E056F622E4C397F709E497F709E497F72E
:1016430009E497F722600D08C6A2E713C618C6136C
:10165300C6D5E0F322C6F4C608C6F4C608C6F4C667
:1016630008C6F4C622C3E09608A3E09608A3E09652
:1016730008A3E09622C3E7960809E7960809E796C8
:101683000809E7962275D00075813F7518317519E1
:101693000300020F30E6084608C31346083360020E
:1016A300E633F422E7094709C3134709336002E726
:1016B30033F422600C08C6C313C618C613C6D5E09C
:1016C300F422E6F008A3E6F008A3E6F008A3E6F0A8
:1016D30022E0F608A3E0F608A3E0F608A3E0F6226A
:1016E300CAC0E0E6F0A308DAFAD0E0FA22E0FCA3ED
:1016F300E0FDA3E0FEA3E0FF22EAF0A3EBF0A3ECFE
:10170300F0A3EDF022E0FAA3E0FBA3E0FCA3E0FDED
:1017130022E8F0A3E9F0A3EAF0A3EBF022ECF0A3B4
:10172300EDF0A3EEF0A3EFF022E0F8A3E0F9A3E0DD
:10173300FAA3E0FB22E5C754F84401F5C779012277
:101743002518F582E43519F58322E7271947194748
:10175300194722E62618461846184622C2AF75D600
:101763009F020000221213995EE205121399B2E35D
:101773000512139968E40512139967E50512139985
:101783009AE60512139933C007121399A6C00712DC
:1017930013992CC107121399F3CE0712139904CF8F
:1017A30007121399A2CF07121399ADCF07121399FA
:1017B300F7FF01121399EDFF041213990BD10712CE
:1017C30013991BD10712139930D10712139996D18C
:1017D30007121399F6CB0712139979CC07121399B1
:1017E300DFCC071213998FBA07121399CABA0712DB
:1017F300139925BB071213997DBB0712139903BCD9
:10180300071213993FBC07121399EDFF02121399A4
:10181300FDFF02121399F8B3071213993EB407128E
:101823001399EED3071213998FB107121399D9B1F4
:10183300071213996FB207121399F5B2071213998E
:1018430026B3071213993EB307121399B2B30712C3
:101853001399C8B307121399DBB307121399E5B3AE
:101863000712139993D10512139944D605121399AC
:1018730059D70512139985D70512139914D8051250
:101883001399DBDA0512139900800612139963800A
:1018930006121399138106121399DE810612139906
:1018A30033830612139913840612139910850612B3
:1018B3001399E886061213990F87061213999B87CB
:1018C30006121399F588061213996B890612139958
:1018D300A98906121399BB8906121399EF7700128F
:1018E3001399BD7900121399F97A00121399BC7CEC
:1018F30000121399D1EC06121399FDEC06121399F9
:101903006EEF06121399AEEF06121399EEEF06125D
:10191300139902F0061213991BF0061213990CF196
:1019230006121399B1F106121399C5F10612139910
:10193300C1C407121399E5C407121399FEC4071211
:10194300139930C50712139960C5071213998DC5F2
:1019530007121399EFC507121399FEC507121399BE
:1019630008C60712139915C607121399F9AE071281
:10197300139919AF0712139958AF0712139973AF3D
:101983000712139992AF07121399F8AF071213991D
:1019930001B0071213995EB00712139982B00712B0
:1019A300139943B10712139950B10712139961B1F7
:1019B30007121399797F00121399917F00121399DB
:1019C300BD7F00121399F489071213994E8B0712E6
:1019D30013995C8B071213996F8B07121399848BDE
:1019E30007121399998B07121399AC8B071213994A
:1019F300208C07121399858C07121399278D0712D0
:101A03001399EB8D07121399FB8D071213990A8E05
:101A13000712139972D00712139996D007121399CC
:101A2300BED007121399E6D0071213996CB80712A8
:101A3300139993B807121399B1B80712139924B9DC
:101A43000712139926AC071213993FAC0712139987
:101A53004BAC071213995FAC071213997DAC0712B5
:101A6300139987AC0712139991AC07121399A4AC7D
:101A7300071213992AAD071213999FAD07121399F1
:101A8300CEAD071213991CAE071213996BAE071252
:101A9300139986AE0712139990AE07121399A1AE4C
:101AA30007121399E4AE07121399D9D207121399A7
:101AB300479D06121399719D061213998E9D061266
:101AC3001399A19D06121399B79D06121399159E9A
:101AD300061213994D9E0612139941A206121399E9
:101AE30086A306121399B9A3061213991CA406120E
:101AF300139986A506121399AEA506121399C3A5C9
:101B030006121399D3A50612139917A60612139951
:101B130072A60612139982A606121399B6C8071263
:101B23001399D0C807121399F8C80712139911C94A
:101B33000712139935C90712139953C90712139939
:101B43006AC90712139998C907121399B3C90712DF
:101B5300139924D307121399149F07121399249FDF
:101B6300071213992BA0071213995FA00712139959
:101B730081A007121399A4A007121399C2A00712F8
:101B83001399FCA00712139961A107121399A3A13A
:101B930007121399E2A10712139913A207121399BB
:101BA3004AA2071213999EF7021213999AF8021286
:101BB3001399B8F802121399DFF802121399A4FAD1
:101BC30002121399D2FA0212139987FB0212139984
:101BD3004EFC021213995DFD021213998FFE02123D
:101BE3001399C5FB061213991AFC0612139994FC58
:101BF30006121399A7FC06121399CEFC0612139929
:101C030061FD061213993BFE06121399D89306122F
:101C13001399039406121399CE94061213990B95F4
:101C2300061213999C950612139939990612139962
:101C33004C9B0612139909BA0412139943BA04125E
:101C4300139943BC041213997EBE041213996BC1FA
:101C530004121399DDC1041213997AC20412139961
:101C630090C20412139943C3041213997FC304123D
:101C7300139996C304121399C2C304121399C5C3CB
:101C8300041213991EC40412139971C404121399F4
:101C930029C50412139966C604121399F3C80412D2
:101CA30013990CCB041213993FCB041213999FCBB6
:101CB30004121399F1CB0412139974CC04121399DF
:101CC30008CD041213991ECF04121399BDD0041228
:101CD3001399F7D10412139996D304121399B7D316
:101CE30004121399F8CD07121399FDCD0712139916
:101CF30017CE0712139959CE0712139982CE0712E2
:101D030013999CCE07121399B5CE07121399D9CE06
:101D130007121399A3E706121399F7E7061213990B
:101D2300C7E806121399F9E80612139926E9061271
:101D3300139977E906121399A1E906121399C5E9D4
:101D43000612139905EA061213998FEA06121399DC
:101D5300C0EA06121399E7EA061213992DEB06124D
:101D630013994BEB061213996FEB061213998FEB32
:101D730006121399C5EB0612139924EC0612139954
:101D830093EC06121399E6BD0612139920BE0612B0
:101D930013995BBF0612139961C006121399D1F60A
:101DA3000612139985F706121399EFCA07121399AE
:101DB30060CB07121399C2CB0712139900E20612E4
:101DC300139911E30612139922E40612139965E598
:101DD30006121399BBE506121399F9E50612139936
:101DE30007E60612139998E706121399CBFC05121E
:101DF30013992DFD0512139911FF05121399D9F1AA
:101E0300061213991AF20612139950F20612139935
:101E130077F30612139913F506121399B3F5061205
:101E230013990080071213993A8307121399BA83FF
:101E330007121399F6C10712139933C207121399A4
:101E430067C2071213997AC207121399A2A2071243
:101E53001399B5A30712139977A40712139922A50F
:101E6300071213994EA507121399C3A507121399C5
:101E73005EC3071213997EC30712139991C4071205
:101E8300139994C40712139970C707121399A6C71D
:101E930007121399C0C70712139902C8071213999F
:101EA30012C807121399ACC807121399EBB606129E
:101EB3001399F5B6061213992FB70612139998B70B
:101EC30006121399B5B70612139957B80612139948
:101ED30060B806121399A5B806121399CEB8061264
:101EE3001399DBB8061213994CB906121399D7B993
:101EF3000612139925BA0612139963BA0612139997
:101F0300C8BA06121399EBBA0612139962BB0612EA
:101F13001399B9BB06121399F4BB0612139929BC82
:101F2300061213993BBC061213994DBC0612139962
:101F33006CBC0612139975BC0612139930BD0612B8
:101F430013997CBD06121399BABD061213991FC6C5
:101F5300071213995FC70712139936B6071213991D
:101F63006CB607121399B4B6071213990DB807127A
:101F73001399A0D1071213997795051213999B967C
:101F830005121399D596051213997F980512139983
:101F9300A998051213991E9B051213995E9B0512AE
:101FA3001399F49C05121399919D05121399E39DBE
:101FB30005121399869E05121399BE9E0512139955
:101FC300009F051213996FA005121399BDA1051265
:101FD3001399EEA3051213991CA40512139943A494
:101FE300051213994CA4051213999CA40512139975
:101FF3002EA5051213995DA805121399E0A80512E1
:102003001399D7FF05121399EDFF0512139914972E
:10201300071213992A9707121399CE970712139948
:102023000D98071213992A98071213995B980712B0
:102033001399A89807121399DB9807121399169905
:10204300071213990B9B07121399DFD006121399EA
:102053000AD3061213993CD40612139954D40612C8
:102063001399E98407121399248607121399B687E3
:1020730007121399E6CA0612139991CB0612139904
:10208300ADCC06121399F4CD061213998BCE06121A
:1020930013996DBE07121399E3BE0712139951EFFB
:1020A300041213991FF0041213992CF004121399BC
:1020B300E1F00412139940F104121399DFF20412B0
:1020C30013994BF30412139906F50412139932F57D
:1020D3000412139951F70412139979F704121399FF
:1020E300DEF7041213992EF8041213997FF90412E0
:1020F3001399D2F9041213994EFA041213995BDC63
:102103000612139982DC06121399D6DE061213996E
:10211300FDDE0612139952DF0612139984E00612AC
:10212300139900E106121399F8CC0712139957CDAE
:102133000712139995CD07121399D6CD0712139948
:10214300E5B7051213994EB80512139999B80512FC
:102153001399D4B80512139949BB0512139963BF98
:102163000512139983C10512139991C2051213998C
:102173006BC30512139988C406121399C2C40612BD
:102183001399FBC506121399A1C706121399CEC75B
:102193000612139971C806121399D4C8061213991B
:1021A3000BCA06121399C5CF071213990FD0071242
:1021B3001399C0FE03121399CFFE031213992FFF35
:1021C3000312139926D40712139983F30312139955
:1021D300EEF303121399ECF40312139902F60312AC
:1021E300139988F60312139961F70312139941F8AF
:1021F3000312139963F9031213997CFA03121399C7
:1022030005FD03121399C83D00121399D43D001222
:102213001399363E00121399403E00121399D33E90
:10222300001213990F3F00121399CF3F0012139915
:10223300DC3F001213993F4000121399D44000125F
:1022430013990A41001213998741001213992743E6
:1022530000121399FB4400121399DC4500121399E1
:10226300264700121399884900121399ED4A001268
:102273001399824B00121399B54C00121399A94D6F
:1022830000121399E24E0012139978530012139916
:10229300655400121399FD5400121399225500122C
:1022A30013994E5500121399E65500121399FC55D4
:1022B300001213991E560012139984560012139993
:1022C300A35600121399CC5600121399EC5700121F
:1022D3001399C25800121399375A00121399585A76
:1022E30000121399D95A001213997F5B00121399A4
:1022F300C75B00121399385C00121399C45C001277
:102303001399285D00121399885D00121399375EA3
:1023130000121399A35E00121399D65E001213994B
:10232300545F00121399B0600012139920610012D8
:102333001399B261001213991563001213999C63E8
:10234300001213990164001213992F660012139956
:10235300BB6700121399CB6700121399FF67001232
:1023630013996D6800121399A868001213990A69EA
:10237300001213999F69001213997A6B0012139933
:10238300456D001213994F6E001213994C7200128F
:102393001399197300121399317400121399DB7591
:1023A30000121399F1F101121399A8F20112139972
:1023B300AFF3011213992DF4011213996FF5011262
:1023C300139990F50112139948F601121399F3F634
:1023D30001121399D3FA01121399EFFC0112139905
:1023E30056FE0112139968D307121399BDD603122F
:1023F300139918D703121399A2D70312139913D958
:1024030003121399EBD903121399D4DA0312139914
:10241300EBDA031213993DDB03121399A1DB0312C9
:102423001399E2DB03121399F5DB031213994BDCC7
:1024330003121399A4DC03121399BCDC031213993E
:102443006CDF0312139901E0031213992BE00312BB
:10245300139974E00312139964E203121399CEE201
:1024630003121399A2E303121399E5E303121399D9
:10247300FFE30312139946E40312139966E403126C
:10248300139910E5031213990EE60312139968E6E4
:1024930003121399B9E603121399C4E703121399AC
:1024A30068EA0312139995EA03121399FEEA0312D9
:1024B300139923EB031213999DEB0312139966EC03
:1024C30003121399A3EC0312139905ED0312139945
:1024D300C6ED03121399C9ED03121399D3ED031239
:1024E3001399DDED03121399F0ED031213996CEEBA
:1024F3000312139995EE03121399A8EE031213997D
:10250300D4EE03121399FBEE031213991FEF031278
:1025130013995AEF03121399CCEF03121399F4EFA3
:102523000312139935F0031213996AF003121399E6
:102533008AF003121399C7F003121399FEF00312E2
:10254300139908F2031213993BF30312139951F3EE
:102553000312139979D20712139991D2071213997F
:10256300E6C907121399EBAF061213993AB0061294
:102573001399DAB10612139995B306121399D7B3C7
:1025830006121399C0B406121399CAB50612139909
:10259300ECB50612139936B606121399B7B606129E
:1025A30013992ED80212139951D80212139944D9B0
:1025B300021213998DD902121399E5D902121399B4
:1025C30041DA021213998DDA0212139903DB021214
:1025D30013998FDB0212139904DC0212139947DC5F
:1025E3000212139918E00212139967E20212139967
:1025F300A1E20212139925E30212139956E602127D
:102603001399CBE6021213995BE80212139963E95B
:102613000212139979EA02121399EFEA021213993B
:10262300B6EB02121399968C0612139922EC02123E
:102633001399F6EC0212139932EE02121399F2EF88
:1026430002121399EDF102121399F8F2021213997F
:1026530094F302121399DFF402121399E5F50212AF
:10266300139948F602121399E5F6021213990080A2
:1026730005121399A080051213990A810512139963
:10268300B18105121399108205121399BC820512A8
:1026930013996585051213998B86051213990F8774
:1026A30005121399EC880512139991890512139950
:1026B300348A05121399938A051213997CDF051244
:1026C3001399CB8C05121399888E051213990990CF
:1026D30005121399639105121399739205121399B5
:1026E300199305121399389405121399D0D404122F
:1026F300139948D50412139990D504121399D4D57C
:10270300041213991DD60412139967D60412139950
:102713009CD6041213991AD70412139974D704126E
:102723001399CDD8041213994CD90412139963DA6F
:102733000412139985DA0412139991DB0412139985
:10274300A2DB04121399BADB04121399DADC041224
:102753001399F7DC04121399CADD04121399EEDD01
:102763000412139905DE0412139926DE0412139939
:1027730048DE041213993ADF0412139992DF04120C
:10278300139908E10412139966E10412139985E180
:1027930004121399B7E20412139934E30412139940
:1027A300A1E304121399E1E30412139943E404121D
:1027B3001399F3E404121399C5E604121399B0E7CD
:1027C30004121399AAE804121399B0E90412139995
:1027D300CCEA04121399DAEA04121399B3EB041244
:1027E300139953EC0412139997EC04121399ACEC5C
:1027F30004121399BDED0412139960EE0412139998
:10280300B8EE04121399EBA50712139993A70712B5
:10281300139950A807121399A5A807121399189B87
:1028230007121399369B071213997A9B0712139970
:10283300A09B07121399C69B07121399DE9B0712DD
:102843001399F69B071213990E9C07121399719C07
:1028530007121399B39C07121399D59D0712139965
:10286300DE9D07121399E79D07121399F09D071236
:102873001399FA9D071213991B9E07121399BA9283
:10288300071213999A9607121399A8960712139988
:10289300AD9607121399FABC0712139918D20712AF
:1028A3001399CBFF0112139961FE04121399D8FFF8
:1028B300061213990080021213995780021213997A
:1028C300C380021213994F810212139905820212D7
:1028D30013994D8202121399668202121399898207
:1028E30002121399AB8202121399E982021213990D
:1028F300388302121399638302121399C18302125C
:1029030013996884021213991085021213998C8506
:1029130002121399598602121399A086021213996F
:10292300EC8602121399748702121399AD8702126F
:1029330013990388021213991F88021213994E8860
:10294300021213995A8A02121399888B021213994D
:10295300B48B02121399E88B02121399098C021299
:102963001399188C02121399238C02121399D28C87
:1029730002121399428D02121399CD8D02121399EB
:10298300D58D02121399428E021213997E8E021272
:102993001399448F021213991790021213996C9092
:1029A300021213990B910212139965910212139952
:1029B300AA91021213994394021213998695021253
:1029C3001399709802121399549902121399389A11
:1029D30002121399499A02121399BB9A021213997C
:1029E300529B02121399B79B02121399A79C0212CE
:1029F3001399CC9C02121399EA9C02121399069D17
:102A030002121399799D02121399889D0212139948
:102A1300109E021213990D9F021213991A9F02120C
:102A23001399239F0212139905A10212139927A246
:102A33000212139937A20212139965A30212139972
:102A4300E4A302121399FFA4021213993BA50212E5
:102A5300139915A702121399D2AA02121399E6AA7F
:102A630002121399F0AA02121399FAAA02121399E5
:102A730004AB021213991DAB0212139927AB021276
:102A8300139994AB021213999FAB02121399C7AB1C
:102A930002121399D2AB0212139937AC0212139993
:102AA30042AC0212139966AC021213998AAC021259
:102AB3001399FCAC0212139945AD0212139961AD3F
:102AC30002121399D2AD021213991EAE0212139978
:102AD30067AE02121399A5AE0212139926AF021222
:102AE3001399CDAF021213999CB10212139901B23B
:102AF300021213992FB30212139955B302121399A9
:102B03009DB402121399D7B702121399D5B90212C1
:102B13001399A0BB0212139939BC021213993ABE3E
:102B230002121399EFBE0212139928BF02121399CE
:102B33008EBF0212139998BF02121399C1C10212D8
:102B4300139900C30212139957C30212139902C4B3
:102B530002121399B2C502121399FFC602121399F6
:102B63001FC70212139974C70212139975C8021270
:102B730013999DC802121399FCC802121399F4C940
:102B8300021213996BCA021213997ECB0212139984
:102B9300ECCB02121399EBCC0212139945CF02121C
:102BA30013996ECF02121399D4D00212139956D2ED
:102BB30002121399ADD2021213995BD30212139925
:102BC30000D40212139959D40212139917D5021281
:102BD3001399A9D50212139908D6021213994AD64A
:102BE300021213997BD602121399D2D702121399A8
:102BF3000080031213993280031213996B8003121E
:102C03001399298203121399FF82031213995E8386
:102C130003121399748403121399C0840312139932
:102C23004E8703121399288A031213996F8B031289
:102C33001399078C03121399138C031213995C8C49
:102C4300031213999E8D03121399948E03121399F1
:102C5300BE8E03121399148F031213996D8F0312EF
:102C63001399E08F031213991692031213999893F1
:102C730003121399839403121399CD950312139995
:102C8300059803121399029B03121399119B0312C4
:102C93001399A59B03121399509C03121399939CA8
:102CA30003121399DC9C031213992C9D031213999D
:102CB300909D03121399029E031213991E9E0312F1
:102CC30013994D9E031213998C9E03121399879F98
:102CD3000312139936A003121399B3A20312139983
:102CE300E5A303121399BDA4031213993FA503127D
:102CF300139974A903121399A3A903121399FEA993
:102D03000312139931AA03121399A9AA031213994F
:102D1300DCAA031213993DAB031213998DAB031273
:102D230013995AAC0312139913AD03121399D7AD28
:102D33000312139951B003121399B3B103121399E8
:102D430004B30312139928B4031213992BB4031277
:102D530013995AB40312139952B60312139911B764
:102D63000312139940B7031213995EB80312139910
:102D730026B903121399E4BA0312139916BB03126B
:102D8300139958BB0312139957BC03121399CABC66
:102D930003121399F3BE0312139952BF031213992B
:102DA300A6BF03121399D5C103121399B8C2031214
:102DB300139974C30312139988C3031213999CC301
:102DC30003121399C9C303121399F9C30312139975
:102DD300B4C503121399C6C6031213991BC7031272
:102DE300139964C7031213998BC70312139953C81A
:102DF30003121399F9C8031213997FCA0312139983
:102E0300C6CA0312139938CB031213998DCC03123C
:102E1300139936CD031213996ACD0312139982CDF8
:102E23000312139925CE03121399A1D003121399F8
:102E330049D20312139967D20312139985D203124D
:102E4300139951D3031213999FD6031213996D84C7
:102E530001121399A58401121399A58901121399DB
:102E6300EB8901121399218B01121399868B01129D
:102E73001399FB8C011213990590011213992E914A
:102E830001121399419B01121399D19B01121399BA
:102E9300BB9E01121399C89F011213992BA0011213
:102EA300139973A101121399E1A30112139973A545
:102EB3000112139900A6011213991FA70112139966
:102EC300ACA701121399B6A701121399DEA7011239
:102ED30013997EA80112139969A90112139936AAAD
:102EE3000112139953AA011213997CAA011213997F
:102EF300A9AA01121399F0AC01121399BFAD0112E3
:102F03001399FEAD0112139980AE0112139921AFEB
:102F13000112139953AF011213999AAF0112139926
:102F2300CDAF0112139911B00112139960B00112C0
:102F3300139965B001121399C1B00112139905B128
:102F430001121399DFB10112139944B201121399BB
:102F5300AAB20112139925B3011213998DB6011266
:102F6300139990B7011213990EB90112139924BC46
:102F730001121399C6BC011213990FBF01121399C1
:102F8300CABF0112139909C001121399E1C10112B9
:102F93001399FEC10112139907C20112139910C2AA
:102FA300011213991BC2011213993AC20112139908
:102FB300DEC3011213993BC40112139945C40112D4
:102FC30013994FC401121399AEC401121399F8C493
:102FD30001121399F9C50112139950C601121399DD
:102FE30061C701121399AAC70112139964C8011288
:102FF30013997BC90112139950CA0112139997CBE4
:10300300011213999BCC0112139994CD01121399B8
:10301300ACCD01121399E3CD01121399EDCD011239
:103023001399F7CD0112139902CE0112139920CEF1
:103033000112139968CE01121399C6CE0112139986
:10304300EDCE01121399FFCE01121399B4CF0112E1
:103053001399EDCF011213990FD10112139962D174
:103063000112139948D2011213996FD201121399C5
:10307300DFD2011213995BD301121399B7D4011252
:103083001399DED501121399A0D6011213996ED7A5
:10309300011213992CD80112139914D901121399FF
:1030A300BED90112139926DA01121399DBDA011240
:1030B300139937DB011213998FDB0112139955DC36
:1030C3000112139978DC0112139933DD011213995C
:1030D30055DD01121399B6DD01121399E6DF0112D2
:1030E3001399DFE0011213998BE101121399ACE3F9
:1030F30001121399F5E30112139940E40112139994
:103103009CE401121399FAE4011213991EE50112CA
:10311300139942E50112139977E5011213999FE57B
:1031230001121399E4E50112139938E60112139978
:1031330091E6011213998BE70112139929E9011200
:1031430013996EE90112139997E90112139920EA71
:103153000112139993EA01121399A1EA0112139927
:10316300C5EA011213991BEB0112139936EB0112F5
:103173001399F1EB011213991DEC0112139960ECF1
:1031830001121399C3EC01121399D1EE0112139991
:10319300FDEE01121399B8EF011213999CF001127D
:1031A300139930F1011213994BF20512139983F21B
:1031B30005121399A4F205121399E6F20512139955
:1031C3004AF30512139954F30512139964F3051284
:1031D30013999BF30512139944F7051213990CF9EC
:1031E30005121399F0FA0512139992FB051213991C
:1031F3001CFC05121399508004121399F9800412D0
:103203001399D88104121399E48204121399048345
:1032130004121399268404121399D6850412139960
:103223004386041213991487041213991A880412FB
:103233001399928804121399CD880412139926893D
:1032430004121399618904121399AA890412139918
:103253003E8A04121399D48A04121399A98B041277
:1032630013997C8C041213990A8D04121399308DCF
:10327300041213995D8D041213998E8D0412139900
:103283005B8E041213996B8E04121399BE8E041273
:103293001399CB8E04121399D88E04121399E18ECD
:1032A30004121399458F04121399A38F04121399CF
:1032B300EE8F04121399099004121399309004129B
:1032C30013994D9004121399599004121399EA918A
:1032D300041213990392041213997F9204121399FF
:1032E300929204121399A292041213994693041210
:1032F3001399B29404121399C59504121399659600
:10330300041213996F9604121399EE9604121399EB
:10331300FF96041213993E97041213996C970412A3
:103323001399399804121399909804121399C99810
:10333300041213991F99041213993D9904121399B6
:103343008B9904121399569A04121399A49A04128E
:103353001399F19A04121399749B041213999E9B67
:1033630004121399D49B04121399E39B0412139927
:10337300429C04121399BA9C04121399FB9C0412E5
:1033830013994B9D04121399769D04121399909DE2
:1033930004121399AA9D041213997F9E0412139980
:1033A300899E04121399C49E04121399D49E041285
:1033B3001399259F04121399399F041213995BA043
:1033C3000412139970A00412139903A10412139900
:1033D30077A1041213991CA20412139927A20412B1
:1033E30013998AA304121399A6A304121399F2A39F
:1033F3000412139960A40412139992A4041213994A
:10340300ACA4041213990CA504121399ABA50412CE
:103413001399F6A50412139949A804121399E1A864
:103423000412139958A904121399B5AB04121399F2
:10343300CDAB04121399D0AB04121399DCAB041275
:103443001399F0AB04121399F8AB041213992FAC30
:103453000412139923AD04121399ADAD04121399F9
:103463002FAE04121399AFAE0412139986AF041250
:103473001399A8AF0412139941B0041213999EB083
:1034830004121399A1B00412139910B104121399E1
:103493005CB2041213996FB304121399FAB30412B2
:1034A30013990DB504121399D4B50412139905B6E3
:1034B300041213992BB60412139934B604121399F8
:1034C30063B60412139913B704121399C3B7041202
:1034D300139936B804121399D9B8041213994CB935
:1034E300041213998BB904121399D4B904121399C2
:1034F3004B8C06121399B58B06121399268A061262
:1035030013991AB6051213999FB4051213999DB313
:10351300051213995EB10512139908B10512139997
:103523004BAF05121399C2AC051213993CAC0512AB
:103533001399F8AA05121399A8DE05121399A8DDA9
:1035430005121399B4A9051213992DA905121399FC
:10355300C9DC05121399F0DB0612139917AA071297
:103563001399EFA90712139982A90712139922A994
:1035730007121399BAD005121399E0CF05121399C4
:1035830016CF0512139985CD051213994ECD051249
:10359300139920CD05121399D4CC051213993DCC60
:1035A30005121399ADCB0512139987CB0512139905
:1035B3003CCB0512139906CB0512139989CA051240
:1035C300139924CA05121399D3C905121399FBC879
:1035D300051213996BC8051213991FC80512139985
:1035E3009AC70512139955C70512139939C70512BE
:1035F3001399E1C50512139951DB06121399B3C54B
:10360300051213998FD706121399B4D6061213997C
:10361300C7D307121399ACD3071213997A920612E0
:1036230013991C9106121399B390061213994A9099
:103633000612139980C50512139904C5051213992F
:10364300919007121399828F071213992A8F0612EA
:103653001399BC8E07121399438E0712139900F224
:1036630005121399A7F1051213996C8E061213997B
:1036730072F1051213994C8B051213993DF1051242
:10368300139909F1051213999CF00512139984F00B
:10369300051213995FF00512139938ED051213996A
:1036A3000BEB0512139912E9051213999EE8051203
:1036B30013994FE80512139909E805121399ABE71B
:1036C30005121399B1AC061213991FAC0612139984
:1036D300B38D0612139934AB06121399BCA90612C3
:1036E300139977A706121399B2A6061213991FEC22
:1036F3000200000080FB8F0001002A1B87000100ED
:10370300F91D35000400BD1D25000200C11D260062
:103713000200C31D27000200C51D28000100CF1DA4
:1037230029000100D01D84000400D11D8600010082
:10373300D51D2A000100D61D2B000100D71D2C002A
:103743000100DB1D2D000800121B2E000100DC1DF3
:103753002F000100DD1D30000100DE1D31000100DE
:10376300DF1D320001001A1B330001001B1B340054
:103773000100E01D360001001C1B38000100E11DA3
:1037830039000100DA1D83000200F71D6300010008
:10379300271B64000100D81D65000100D91D6D00C1
:1037A3000100281B710008000A1B66000100F61DBA
:1037B30043000100E71D44000200E81D450001002D
:1037C300EA1D46000200EB1D470008001F1B4800CE
:1037D3000100ED1D4B000100EE1D04000100FA1D68
:1037E300A1000100FD1D37000100FC1D8800010040
:1037F300FB1D3C0001001D1B3D000100E21D4900B3
:103803000200EF1D67000100291B4D000200F11D9E
:103813004E000100F31D4F000200F41D3E000100A5
:10382300E61D51000100E31D52000100E41D530099
:103833000100E51D540001001E1B000000000000F4
:1038430000013636010100010201000103010001FC
:103853000401060605020000070100340801000FF9
:10386300090401010D0100FF0E080000170200000A
:10387300190100FF1A0100011B0100FE1C010008D1
:103883001D0200001F0100012001000121020000B0
:103893002301000F24020000260100012701000874
:1038A300280200FF2A0100072B0102402C0100001F
:1038B3002D0100012E0100012F0100FF30010B1D1E
:1038C300310800003A0100083B01000F3C010001F0
:1038D3003D0100FF3E0400004204000046040000D6
:1038E3004A0400004E040000520400005604000085
:1038F3005A04000000000000200169840000010058
:10390300200169840000020020016C840000030090
:1039130020016A840000040042016D80000005005C
:1039230042017E80000006004201A08000000700E3
:103933002001AB80000000404201A0800000100085
:1039430042018F80000011002001FF0600001200D9
:103953001003891D0600000010110000080000007C
:10396300203300000C005500393300000C001C000C
:1039730042330000120055002001000014000E0025
:103983004222000001037103010301030103010348
:1039930001032203020301031003000300030003D6
:1039A3000003000300030003420300032403060390
:1039B3000003000304031203250323032503230346
:1039C3000403040300030003000344030003000390
:1039D300230300036503210035038103000305036B
:1039E3000003000300030003250323030101710106
:1039F30001010101110101013101010101018001F5
:103A0300100161013B001400630173017201620143
:103A130043010001130106013D01350004011201B8
:103A2300000100010001000104010401330133011D
:103A33003C0144013201360000010001650100012F
:103A430035008101000105018201830100010304A6
:103A530071040204600411047004020402040104EA
:103A63000204100461040004140463047304720464
:103A73006204430400041304060400040004040461
:103A83001204000400040004000451046400000450
:103A9300000400044404000400040004000465045A
:103AA3000004350481046400050400048304000455
:103AB300030271023001600211027002010202026C
:103AC30002028002100261023A00410063027302A3
:103AD3007202620243020002130238000002000273
:103AE30004021202000200020002000204020402A5
:103AF300370037003C024402000239000002000292
:103B0300650200023502810200020502820283027D
:103B130000020300710030016000110070003102E7
:103B230020035004800010006100000014006300B3
:103B330073007200620043000000130006000000DF
:103B43000000040012000000000000000000040058
:103B53000400370037003C0244000000000000006E
:103B63000000650000003500810000000500000032
:103B73008300000036000100060000000F00000073
:103B83000000000000000000000003FFFF0000042D
:103B930003FFFF0000FFFF0FF4010005C40403202F
:103BA300000100000B000000000000000003010FF3
:103BB3000000000000000000000000000000000002
:103BC30000000000000000000000000000000000F2
:103BD30000001A2374232023242226237A23262356
:103BE30086232C23242226237A23322324223823B8
:103BF30024223E232422442324224A232422502302
:103C0300242256238C235C2324220000000000007E
:103C130000000000000062239E2368232422622305
:103C23009E236823242256238C236E232422000000
:103C33008C26130038261F003E261F8044260100D1
:103C43008C260200C0250300C6250400CC250500F0
:103C5300D2250600DE253000FC253100F625320092
:103C6300082633000E263500142634001A263600A3
:103C7300202611002C26140032261500F025FFFF04
:103C830000000A0000000200000004000000080019
:103C93000000100000002000000040000000800031
:103CA3000000000100000002000000040000000802
:103CB3000000001000000020000000400000018A06
:103CC3002E06B42E08AE2E0BCC2E10A22B02902E55
:103CD30005A22E07962E0C722E0D7E2E649E29FFB2
:103CE300000007ECFDFDFDECDCDCCCBCACAC9C9C2B
:103CF3008C7C7C6C6C5C5C5C4C4C3C3C2C2C1C1CB1
:103D030003EAF5E5D5D5C5B5A5959585857575659D
:103D130065555545453535252515150500160F00FF
:103D2300000B150B020002220F3300000E5A6967C5
:103D3300426565416C6C69616E63653039010305E9
:103D430007090B0D0F00020406080A0C0D000119E8
:103D53001618161618230300303017181921301BB4
:103D63001D1F30303016181920231A1C1E30000373
:103D73004A49434E181A25050200393D3F373C3C5A
:103D8300362C442D0C0E020B040B0A0708000F02FD
:103D9300040201010101090200BE040AE803000054
:103DA30000000E00E80300007F001E05030003046B
:103DB30000100A0C10080C280904040903010C055F
:103DC30008151208FFC082C083E990197AF00240F7
:103DD300CD74F4120DB68A088B09EB5480604D80C4
:103DE3000EEEFAEFFB122284EEFAEFFB121ED690D0
:103DF300197AE0F9121EE88A0A8B0BAE0AAF0BEEB2
:103E03004F60208E828F83E0641A60D5EEFAEFFB59
:103E130012221EE9F974FF6960CEEEFAEFFB121E5F
:103E2300DC80CCAA08E5096480FB80047A007B006F
:103E33000240B574F7120DB67AFF0254F574F61208
:103E43000DB6E9FEEAFF7A047B001244C8A808A96C
:103E530009EA496034EF8A828B83A3A3A3F0EE8A35
:103E6300828B83A3123EC4E4F0A3F0901989124419
:103E7300E87009901989E8F0A3E9803FE0FB8A82A2
:103E83008B83A3A3A3E06F700479008031EAFCEB7A
:103E9300FD8A828B831244E870E474FF6F700C8C8C
:103EA300828D83123ECBE4F0A38010901989125EB9
:103EB3001C901989123ECBEAF0A3EBF0790102566C
:103EC3009EA3F08A828B8322126D33888289832298
:103ED300C082C083EA126E353BF583E0FA901989FC
:103EE300800488828983125CBE601C88828983A3D4
:103EF300A3A3E0FBEA6B600574FF6B70E58882891E
:103F030083A3A3E0F9800279FF0240CD74F4120D7C
:103F1300B6EAFEEBFF8A82F583125E1C12221EE9CB
:103F2300F50874FF697003023FC07A197B00121E03
:103F3300D0EA4B7003023FC08A828B8374341268C9
:103F43009DA3EA2402FCE43BFD74061213128E8245
:103F53008F831271858882F583126E478A828B83E1
:103F6300A3A3A3A3A3A3A3A3123FC5A3A3A3A3A3F1
:103F7300A3EA240AFCE43BFD740C1213128E828F15
:103F830083125F4FC8126E3538F583E0C0E0EA2430
:103F930016F582E43BF583D0E0F0EE240CF8E43F21
:103FA300F98882F583126E4BEA2417F582E43BF518
:103FB30083123FC5E4F0A3F0A908121EDC790102C5
:103FC30040B5ECF0A3EDF08882898322C082C083E0
:103FD300901987125E1C0240CD74F4120DB68A0844
:103FE3008B09ECFEEDFF7A0812402F7004791080E4
:103FF300381240991240C1740C121743125E1C8888
:10400300828983A3A3A3A31277DF90197F1244E8C5
:1040130090197F60111240BC8003EAFCEB1244E369
:1040230070F88C828D831240930240B57B00121F7F
:10403300668A0A8B0BA80AA90BEA492274F4120DAB
:10404300B689088A09ECFEEDFF7A0A12402F700444
:104053007910803A1240998A828B83A3A3A3E4F058
:10406300A31240ACE5091240ACA3EEF0A3EFF0902D
:1040730019831244E890198360111240BC8003EA4B
:10408300FCEB1244E370F88C828D83124093802200
:10409300126D3379002212409D228A828B83E4F0D1
:1040A300123EC4A3A3E508F0221254E6A3A32212EE
:1040B30013C97F040211068F83E0FCA3E022A3E56A
:1040C300091254EBEEF0A3EFF022D083D082021357
:1040D3009674F2120DB6EAFEEBFF8C088D091222DC
:1040E3009C8B0DA90DEA4960198A828B83A3A3A334
:1040F300EEF0A3EF1254E2E508F0A3E509F079002E
:1041030080027901025E9E74F4120DB674F71214E4
:10411300ACE9FE8518828519837401F0EC7006ED15
:10412300C39406404D74036A4B6047740112147EB6
:10413300880A890B780A1213B67C127D007A007BF9
:1041430000EE1241801213C9E9601CE4F50AF50B75
:10415300780A1213B6740312148E740212148612A0
:1041630022F074021213C9851882851983E0640151
:10417300700479018002790074090240B2F91222B5
:10418300A274022274E8120DB674FA1214AC8912E6
:104193008A168B178C088D0912368E8A148B15EAB2
:1041A3004B70057902024316AA08AB09A912122221
:1041B300BAE9F50FA2E6401C901987125CBE6014A1
:1041C300E82419F582E439F583E064017006E50F0C
:1041D300D2E6F50F7C067D007900AA18AB19121EF2
:1041E300BE741F12174312431B6009E054FCF0E036
:1041F30044018003E054FC12722D125CBE602B74E8
:104203001E121743E0FE88828983A31211CDEEFDAF
:104213007402121743E05403FCAA08AB09A9121253
:10422300224274021213C9E970057901024316741C
:1042330022121743125CBE6012851882851983E02F
:104243004404F07402121743126D2F7420121743A3
:1042530012431B6005E044088003E054F7F0742127
:1042630012174312431B6005E044108003E054EF30
:10427300F07424121743E0C0E07404121743D0E033
:10428300F07405121743EEF07803851882851983BD
:10429300E0540460027805742512174312490FE8AD
:1042A3002510FEE43511FF1245AD6063AC0AAD0B7A
:1042B300AA18AB191222907427121743125E2E12FA
:1042C30013B2AC10AD1112609D1213C9750C1E7898
:1042D3000C1213BA750C7D750D19780C1213B67880
:1042E3000A1213B68E0C8F0D780C1213B6780812BF
:1042F30013B6A90FAC14AD15AA16AB1712369A74E0
:10430300091213C9E9FEAA0AAB0B121F6C80027EC5
:1043130010EEF97406026D3D12431F22E0851882E8
:104323008519832274EA120DB674FE1214AC890B3C
:104333008A148B158C0E8D0F7E007F00750A007416
:104343001812174312490F80111244D91222FC8B01
:1043530009EE2AFEEF3509FF050A126B48502EE5D8
:104363000A75F0061248C62403FEE43FFFA3A3E048
:1043730070E60EEE70010F88828983A3A3A3A312B4
:1043830044E88882898360C1125C2F80C2EEFAEF11
:10439300FB1244C88A0C8B0DEA4B70030244BC75B4
:1043A3000A008030A818A9198812891378121213E9
:1043B300B678081213B68A828B831244D912230269
:1043C30074041213C912717FE50828F508E5093949
:1043D300F509050A126B48507CE50A75F006A4F846
:1043E300A9F0E51028F582E511126B2F1244D08A4B
:1043F300828B83A3125456F01254CA125451F0E51F
:10440300082403F5085002050988828983E070C2F5
:10441300EA240308E43BF98882F5831244D0A38598
:1044230082088583098A828B83A3A3A3A31240BC3A
:104433008C82F583E582458370030243A7AC08AD04
:1044430009AA82AB8388828983E0F91222D28A087F
:104453008B090243D5780C1213B68E088F0978089E
:104463001213B674201217431249051213BAE4F556
:1044730008F50978081213B6742212174312490576
:104483001213BA74221217431249051213BA75088C
:104493000078081213BA75080178081213BAAC0E23
:1044A300AD0FAA14AB15A90B124DA31213C9E9FE44
:1044B300AA0CAB0D121F6C80027E10EEF97402126F
:1044C30013C90244F6121F668A088B0922E0850885
:1044D30082850983F02212721BAA0EAB0FA90B224D
:1044E300FD8C828D83125E24EA4B22EEF98004AAAE
:1044F30012AB137F0E02110674EC120DB6890A8AF1
:10450300108B11ECFEEDFF74141217431247017068
:104513000302459EA808A9097C00800D1246E450B9
:10452300010B1247145001090C850C82850D83E0A1
:10453300FAECC39A40E674016A700AA3E070067548
:104543000E01750F0078081213B6780E1213B674A5
:104553001C1217431246DE1213BAE4F50CF50D785C
:104563000C1213B6741E1217431246DE1213BA74DA
:104573001E1217431246DE1213BA750B00780B1284
:1045830013BA750B04780B1213BA124D991213C98F
:10459300E9FEAA08AB09121F6C80027E100246C70F
:1045A300740A1213C97F0C021106EEFAEFFB121FF5
:1045B300668A0A8B0BEA4B22F5831257E622F8E44C
:1045C300350DF98882F5831248F5A322851082857B
:1045D3001183E0F8E508C3982274EC120DB6890A3A
:1045E3008A108B11ECFEEDFF74141217431246CCA4
:1045F300F5087509007402780812161185080E85EE
:10460300090FAA0EAB0F1273EA70030246C57900B5
:10461300803EE9F51275130074027812121611E543
:104623000C2512FCE50D3513FD8C82F583A3124591
:10463300BD124ECFA31245BDA3F0EC2403FC5001E1
:104643000DF5828D83E0124EC9124EA350010B0962
:10465300850C82850D83E0F8E9C39840B574016841
:10466300700AA3E07006750E01750F007808121327
:10467300B6780E1213B6741C1217431246DE1213C9
:10468300BAE4F50CF50D780C1213B6741E12174329
:104693001246DE1213BA741E1217431246DE1213A9
:1046A300BA750B00780B1213BA750B07780B12133C
:1046B300BA124D991213C9E9FEAA08AB09121F6C6D
:1046C30080027E10EEF90245A81246D022E0F50CD6
:1046D300A3E0F50D850C82F583E022E0F50B780B62
:1046E30022EC75F003A4FAABF0E50C2AFAE50D3BD6
:1046F300FB8A82F583124922F0EA2402FA22124647
:10470300D075F003A4F50EE5F0F50FAA0E1271D8DB
:1047130022F5828B83124AD912491BA3A3F0E82402
:1047230003F82274E8120DB674FE1214AC12496D2C
:1047330012174312490F8009EE2402FEE43FFF05DE
:10474300081245CF5037E50875F00D1248C624040A
:10475300FEE43FFFE070E8A3E070DDEE2405FEE435
:104763003FFFE82404F50AE4391248E160D1850AE1
:1047730082850B83E0F91222E4EE2980BE1245AD57
:1047830070030248C18A0E8B0F7508008018E50C70
:104793002409FAE4350DFB8A821248EF124917F017
:1047A3008C0E8D0F05081245CF400302485EE508C5
:1047B30075F00D124929AA82AB831245CAF0E50CA4
:1047C30024021245C112493EA3F0E50E2404F50E5E
:1047D3005002050F850C82850D83E070C7E50E241A
:1047E30002FCE4350FFD850E82850F83A3A882A901
:1047F300838A828B83E07096E50C2404F512E435FA
:104803000DF5138512821248EFF0E50C2405F51619
:10481300E4350DF5178516821273EE1249502407FD
:10482300F8E4350DF988821248EF124965F0E50E78
:104833002405F50E5002050F851282851383124855
:10484300E870030247A7AC0EAD0FE50C240BF5820D
:10485300E4350DF5831248FD0247A7780A1213B613
:104863008E0C8F0D780C1213B67422121743124953
:10487300051213BAE4F50CF50D780C1213B6742473
:104883001217431249051213BA742412174312491B
:10489300051213BA75080078081213BA7508097857
:1048A300081213BAAC14AD15740B1217431248D681
:1048B3001213C9E9FEAA0AAB0B121F6C80027E1009
:1048C300026D39A4F8A9F0E51028F582E511124A22
:1048D30074EE22125E24A909122248740B22F50BEE
:1048E300850A82F583E0F91222D8E922F58312487A
:1048F300F522E0850E82850F8322124ADE8A0E8B13
:104903000F22E0F5087808228E828F83E0F510A34A
:10491300E0F5112212491B22123EC512492222A39D
:10492300E08882898322126CFD85820C85830D12B7
:1049330048F5F0850C82850D83A32212494222A3F8
:10494300124B7BE0850E82850F83A3A322F085168D
:104953008285178312495EF0E50C22A3E08C828DD9
:104963008322A3A3124942A3A32285188285198314
:10497300EAF0A3EBF089098C148D157E007F007596
:104983000800741A2274EA120DB6890B8A108B116F
:104993008C0E8D0F7E007F00750A0074161217436C
:1049A3001253118003124A41850C82850D83126BC9
:1049B3004E40F2EEFAEF1273E9607EA808A909757A
:1049C3000A008003124A7D850C82850D83E0FAE597
:1049D3000AC39A40EF78081213B68E0C8F0D780C29
:1049E3001213B6741E121743126B741213BAE4F542
:1049F3000CF50D780C1213B67420121743126B7456
:104A03001213BA7420121743126B741213BA750A75
:104A130000780A1213BA750A0A780A1213BAAC0E8E
:104A2300AD0FAA10AB11A90B124DA31213C9E9FEC6
:104A3300AA08AB09121F6C80027E100244EEE50A3D
:104A430075F005A4F8A9F0E50C28F582E50D124AE6
:104A530074A3A3A31277E7A3A3E0F91222EA8B09B5
:104A6300EA2403F8E43509F9EE28FEEF39FF050AD5
:104A73002239F583A3A882A98322E50A75F005A448
:104A8300FAABF0124ACD858214858315124923129D
:104A93004EC488828983A3F0E51412752A35158ADA
:104AA30012F5138A82F583124AD9A3F0E82403FC92
:104AB300E439FD851482851583A3A3A3124ADE8AF4
:104AC300128B13A812A913050A22E50C2AF582E515
:104AD3000D3BF583A322124923A322125E288512DC
:104AE30082851383E0F91222D22274F6120DB67472
:104AF300FE1214ACE9FE740C121743124B6CC0E0A7
:104B03007401121743D0E0F0A818A919880889097D
:104B130078081213B675080275090078081213B6DF
:104B230074161217431249051213BA741512174358
:104B33001211CD74161217431249051213BA7416C3
:104B43001217431249051213BA7508007808121395
:104B5300BA75080B78081213BAEEF9124DA31213A3
:104B6300C974021213C902569E1272478882F583D2
:104B730012431F124B7BE022F088828983A32274A5
:104B8300EA120DB689138A108B11ECFEEDFF741631
:104B9300121743127548E50A2402F50CE4350BF5A8
:104BA3000D850C82F583E004751200F50E750F0078
:104BB300FAAB0F1273EA7003024CAD850A82850BC0
:104BC30083124D8D801EEAFC850A82850B83A3A385
:104BD300A3E02CFBA3E034008B821273EEF0A3A8B6
:104BE30082A9830A850C82850D83E0FBEAC39B407F
:104BF300D5850A82850B83A3E0F87418121743E066
:104C0300F97419121743E0FA741A121743E0FB748C
:104C13001168703978081213B6780E1213B6EBF5D3
:104C23000A780A1213BAE4F50AF50B780A1213B6D6
:104C3300EAF50A780A1213BAE9F50A780A1213BADE
:104C4300750A00780A1213BA750A12803C74136845
:104C5300704F78081213B6780E1213B6EBF50A7874
:104C63000A1213BAE4F50AF50B780A1213B6EAF539
:104C73000A780A1213BAE9F50A780A1213BA750AFE
:104C830000780A1213BA750A14780A1213BAEEFCE2
:104C9300EFFDAA10AB11A913124DA31213C9E9F525
:104CA30012AA08AB09121F6C8003751210A9120215
:104CB30044F674E8120DB689108A128B13ECFEEDDC
:104CC300FF7418121743124EAF75F003A4A9F02412
:104CD30001F50EE4391273E57003024D86850C82EB
:104CE300850D83124D8D802EEA75F003A4FCADF083
:104CF300E50C2CFCE50D3D124E951273EE124EC0E1
:104D030088828983124ED688828983A3A3F0E824FC
:104D130003F85001090A850A82850B83E0FBEAC385
:104D23009B40C578081213B6780E1213B67420127E
:104D33001743126B741213BAE4F50AF50B780A12CF
:104D430013B67422121743126B741213BA7422121D
:104D53001743126B741213BA750A00780A1213BA46
:104D6300750A0D780A1213BAEEFCEFFDAA12AB1303
:104D7300A910124DA31213C9E9FEAA08AB09121F09
:104D83006C80027E10EEF9026D401257E6F0A3A884
:104D930082A9837A0022EEFCEFFDAA10AB11A90AC7
:104DA300122248740B2274E8120DB689128A108BF2
:104DB30011ECFEEDFF7418121743124EAFF5087590
:104DC300090074027808121611E5082401F50EE4AF
:104DD30035091273E57003024E90850C82850D83AD
:104DE3001257DDA3AA82AB8379008034E9F51475E9
:104DF300150074027814121611E50C2514FCE50D48
:104E03003515124E951245BB124EC08A828B831202
:104E13004ED6124EC9A3A3A3A3124EA350010B094E
:104E2300850A82850B83E0F8E9C39840BF780812AE
:104E330013B6780E1213B67420121743126B741242
:104E430013BAE4F50AF50B780A1213B67422121793
:104E530043126B741213BA7422121743126B741237
:104E630013BA750A00780A1213BA750A16780A1269
:104E730013BAEEFCEFFDAA10AB11A912124DA31247
:104E830013C9E9FEAA08AB09121F6C80027E100247
:104E93004D88FDEC2402F514E43DF51585148222BA
:104EA3001257E6A3A3A3F0EA2404FA2212531585AA
:104EB3000C82F583A385820A85830BE022124EC4FC
:104EC30022127233E0228A828B83A3A3F08C828D19
:104ED30083A322A3F08C828D83A3A3A3A3E02274D4
:104EE300F1120DB674EB1214ACEAFEEBFFC200EA4A
:104EF3002420F8E43F8808F5098882F583C3E09409
:104F030003A3E09400500579010253099019871215
:104F130077E174021217431277E1740E121743E418
:104F2300F0A3F0740A121743E4F0A3F0740C121701
:104F330043E4F0A3F0EA2422F8E43F880AF50B885F
:104F430082F583126E4B7404121743AA82AB831249
:104F5300228A8A0C8B0DA80CA90D740A121743120E
:104F630077E1850882850983125E1CEAC398F8EB12
:104F730099F9850A82850B83E028F8A3E039F9744F
:104F83000C121743126D2F7408121743E090197E09
:104F9300F0EE2414F508E43FF509850882F583E073
:104FA300F912368E8A828B83E5824583700C9019C1
:104FB30087E4F0A3F07902025309125357602BEEF2
:104FC3002404F50AE43FF50BA31211CD740B121759
:104FD30043E0FD7406121743E05403FC12536612B8
:104FE300224274021213C9E9700C901987E4F0A3EA
:104FF300F079030253091253661222BAE9F50E85BA
:105003000A82850B83125E1CEAFCEBFD90197F80FC
:105013000488828983125CBE7003025105888289E9
:1050230083A3A3125311C3EA950CEB950D40E288B9
:10503300828983A3A3A3A3C3E09CA3E09D40D2E8FA
:10504300FCE9FD7404121743E05407700D74091250
:105053001743E0640B7003025109E50EA2E6400317
:10506300025109EE2419F582E43FF583E06003025F
:105073005109740212174312532F707A74021217D4
:1050830043125CB970707C00850882850983E0F95E
:105093001222C074011217437401F07409121743EA
:1050A30012531D121743E0F50C780C1213BA740750
:1050B3001217431211CD750C01780C1213BA740830
:1050C3001217431273FA1213BA740512147E880C62
:1050D300890D780C1213B6740912174312534E122A
:1050E300174312532312174312533D1213C97C0162
:1050F3001253661222C0901987E4F0A3F0790502D7
:1051030053097C007D007404121743E0F8540360D4
:1051130003025224E8540460057E84025263740936
:10512300121743E0F8C394174003025220E8F50A2C
:10513300750B007402780A12161174D5250AF582CC
:10514300743B350B1257C5E849700302522085089A
:1051530082850983E0C0E07410121743D0E0F07435
:105163000C121743125E1C74111217431277E17469
:105173000A121743125E1C74131217431277E17459
:105183001012148688828983120F858B09A90974EA
:105193000E1217431277E1EA496048740912174364
:1051A300E0F5087509007402780812161174D72502
:1051B30008F582743B3509F583E493F87401938809
:1051C30082F583E582458360127402121486120FFE
:1051D30085740E121743125CBE6008740E121743D7
:1051E3001277907409121743E0F8605474026860F0
:1051F3004F740368604A74066860457408686040C9
:10520300740C68603B7411686036741368603174A1
:105213001568602C740B6860277E0080437E828053
:105223003FEC4D602B8C828D83A3A3A31253576055
:105233001F7402121486120F85E9FE74FF6E700B41
:10524300901987E4F0A3F0F902530974016E70100A
:105253007404121743E0540460047E8380027E8149
:10526300740212174312532F7075740212174312EC
:105273005CB9706B7404121743E0FA5410706074D5
:1052830001121743EEF0740912174312531D12173C
:10529300431249051213BA74071217431211CD753D
:1052A300080178081213BAEA131313541F64015444
:1052B30001F50878081213BA740512147E88088958
:1052C3000978081213B6740912174312534E1217B2
:1052D3004312532312174312533D1213C9D20090A2
:1052E3001987E4F0A3F0EE70047900801974846EDA
:1052F300A200700A50047907800C790680085004D4
:1053030079098002790874151213C9025C291253B2
:105313001522E0F50CA3E0F50D2212778B74082219
:10532300E02406FAA3E03400FB740922125F4FC89D
:105333002415F582E438F583E022A3E0C8126E3920
:1053430038F583E0F912226C74072212712B127262
:1053530017740922A3A3A3125F4F8882F583E58202
:10536300458322850A82850B83125E248508828504
:105373000983E0F92274F4120DB68A088B09ECFE56
:10538300EDFF7C067D007900121EBE85088285092B
:1053930083E054FCF8A3E0F98E828F83E05403FA90
:1053A300E84A850882850983F0A3E91277D7A2E248
:1053B3005004D2F08002C2F0850882850983E0544C
:1053C300FBF0A2F0E433F50A750B007402780A12BD
:1053D3001611E0450A1277D7A2E38508828509836F
:1053E300E050044408800254F71277D7A2E4500433
:1053F300D2F08002C2F0850882850983E054EFF081
:10540300A2F0E433F50A7404780A121611E0450A8F
:105413001260A3850882850983E0540460108E829C
:105423008F83E0FAA3E0F9EA1265F450010F8E824C
:105433008F83125451A312545F850882850983A375
:10544300A3A3A3A3F0EE12752A3FFB0240B51254A7
:1054530056A322E0850882850983A322A312689DAF
:10546300E02274F7120DB68A828B83E054038C8298
:105473008D831254DD54041254D654081254D65456
:1054830010F88C828D83E048F0A3AC82AD838A82CE
:105493008B83E0540460161254CA12495F124B7690
:1054A3008C828D83A3F0EC2402FC50010D8A828B45
:1054B30083A3A3A312495E1254E212495FA3F0EC43
:1054C30012752A3DFB802EEA2402F8E43BF9888218
:1054D300F58322F88C828D83E048123EC5E02212C8
:1054E30054E6221254EBA322F08A828B83A3A3A354
:1054F300A3221222187F01021106C082C0839019D1
:105503008180048A828B831244E8600C8A828B83B5
:10551300A3A3E06970ED80047A007B000240CDC054
:1055230082C08390198380048A828B831244E8604B
:10553300138A828B83A3A3E0F8E968600B74FF6886
:1055430070E680047A007B000240CD74F0120DB641
:105553008A088B09ECFEEDFF12229C8A0C8B0DEA64
:105563004B60627C0080010C850C82850D83A3A3B4
:10557300A3A3A3A3A3125F35504BECF50E750F0045
:105583007403780E121611850C82850D83A3A3A3D1
:10559300A31257CF8882F583E493FA740193FBE552
:1055A300086A7003E5096B70BEA3A31255CC7002A1
:1055B300EF6B70B374101217431255D6740812129E
:1055C300CE7901800279008015E493FA740193FB8C
:1055D300EE6A2212721B89838882221213C97F0802
:1055E30002110674F6120DB61256126005125E19F8
:1055F30080047A007B0002569E74F6120DB6125692
:10560300126005125E1780047A007B0002569E1218
:10561300229C8A828B83E58245832274F7120DB61E
:10562300E9FFEAFCEBFD90198580048882898312E7
:105633005CBE604688828983A3A3E06F70ED7E0021
:1056430080010E88828983A3A3A3E0FAEEC39A5054
:10565300DAEE75F003A4FA85F008AB088882898333
:10566300A3A3A3A3E02AFAA3E03BFB8A82F583E08A
:105673006C7003A3E06D70CA80047A007B0002544F
:10568300F874F6120DB61222B48A828B83E5824532
:10569300836006A3A3E0F9800279007F020211066A
:1056A30074F6120DB6ECFF1222B48B09A909EA496C
:1056B3006015EA2402F582E439F583EF6005E0D250
:1056C300E68003E0C2E6F080D274F0120DB6EAFE83
:1056D300EBFF8C098D0A1222968A0C8B0DEA4B7014
:1056E300030257BA750B007410121743126B43FA77
:1056F300E9FB80128C828D83A3A3A3E493A2E350DE
:10570300030257A0050B850C82850D83A3A3A3E099
:10571300F8E50BC39840030257BAE50BF50E750F76
:10572300007402780E121611850C82850D831257B0
:10573300CF1257BFEE687002EF6970C88A828B83FD
:10574300E0F88C828D83A3A3E493C39840B67411CD
:10575300650970197401650A609AE50A70A68C825E
:105763008D83A3A3A3E493A2E240328097741365CD
:10577300097044E50A700D8C828D83A3A3A3E4937F
:10578300A2E080E57401650A60030257078C828DED
:1057930083A3A3A3E493A2E1400302570774121265
:1057A30017431258B674041212CE88828983A3A3B6
:1057B3001257DD7901800279000255E1E8FCE9FD29
:1057C3008882F583E493F8740193F922A3A3A3A336
:1057D300E0250EF8A3E0350FF9221257E6F0228EEA
:1057E300828F83E08A828B832274F0120DB68A083B
:1057F3008B098C0B12229C8A0E8B0FEA4B700302CF
:1058030058A37A007B007410121743125F4280057D
:105813000AEA70010B850E82850F83A3A3A3A3A3BA
:10582300A3A3E0F8C3EA98EB940050748A0C8B0DA1
:105833007403780C121611850E82850F83A3A3A31C
:10584300A31258A81257BFE508687003E5096970E9
:10585300BFA3A3E493F50C740193F50D8E828F839C
:10586300127185C3E50C98E50D9940A48C828D8354
:10587300A3A3A3A3A3E493A2E7E433650B709174FA
:10588300121217431258B674081212CE88828983F3
:10589300A3A31271858E828F83126D2F79018002EB
:1058A30079000255E1A3A3A3A3E0250CF8A3E035F7
:1058B3000DF9221272478C828D83E8FCE9FD227474
:1058C300F1120DB6EAFEEBFFECFAEDFBEE4F7003BF
:1058D300025A34EC2402F50CE43BF50D8C828D83E3
:1058E300A3AC82AD838E088F09750A00E912127E7C
:1058F300044142015A4344135AE0E2CC59E8E9789F
:105903005921086A590978590A8E590BCC59106ADA
:1059130059186A591978591A8E591BCC59206A5942
:10592300217859228E5923CC5924DD5925E659264D
:10593300EF5927F859286A592978592A8E592BCCB7
:10594300592CDD592DE6592EEF592FF859306A5944
:1059530031785938785939CC593AF859EACC59F051
:10596300F859F1255A345A8E828F831257DDECFA97
:10597300EDFB025A348E828F831245BD1254608C24
:10598300828D83F00A0AAB0D025A348E828F83789C
:10599300081216D48A828B83E5081268A27808124B
:1059A30016D4E5098C828D831268A278081216D466
:1059B3007410780812144D850C82850D83E508F068
:1059C300EA2403FA506B0B80688E828F831211C90D
:1059D300121F3C74041213C9805778081213B27C47
:1059E30005804678081213B27C06803D78081213AE
:1059F300B27C07803478081213B27C08802B7808B5
:105A03001213B28E828F83E02401FCE43400800FF2
:105A130078081213B28E828F83125BBEFCE439FDC9
:105A2300800978081213B27C107D0012609D121356
:105A3300C9025C29C082C083E912127E03202F4F62
:105A43005A383A4F5AE0E24F5A00535A79018002CA
:105A530079000240CD74F2120DB674FE1214ACEA52
:105A6300FEEBFF8C088D091222EA851882851983C3
:105A73007401F0A3E4F0851882851983E0600C7546
:105A83000C01750D00780079008033750CFF750DDE
:105A9300FFEA24FFF8EB34FF80238508828509831E
:105AA300E0C0E0EE28F582EF39F583D0E012731001
:105AB300858208858309E8250CF8E9350DF9EAFCA8
:105AC300EBFDEC24FF1AED34FFFBEC4D70CC7402BC
:105AD3001213C9025E9EE924F86078146079146099
:105AE3007A14607B24FB606B24F86067146068148D
:105AF300606914606A24FB605A14605B14605C1470
:105B0300605D14605E14605F146060146061146013
